:1003EA0041540D0A004F4B0D0A0041542B4350490A
:1003FA004E3F0D0A0052454144590041542B435285
:10040A0045473F0D0A00435245473A2031004154BF
:10041A002B434D47463D310D0A0041542B4353436C
:10042A00533D2247534D220D0A0041542B434D4759
:10043A00533D2200220D0A003E00415444003B0D68
:10044A000A00534F554E444552004F4B00000000DE
:10045A000000000000000000000000000000000092
:10046A000000000000000000000000000000000082
:05047A0000000000007D
:10072F000408000000000C0C3137373139323238F1
:10073F00303832001418494C6F76654D43552E747E
:0A074F00616F62616F2E636F6D0031
:10026D001200037535FF7536037537EFE4753BB82E
:10027D00753A0B120353EF64014E6003120782129D
:10028D0007A67535FF7536037537FFE4753BE875C1
:10029D003A03F539F538753C0A7BFF7A0379F41288
:1002AD000360EF64014E60031207821207A67535D5
:1002BD00FF753604753710E4753BE8753A03F5396B
:1002CD00F538753C0A7BFF7A047905120360EF64FB
:1002DD00014E60031207821207A67535FF753603AE
:1002ED007537EFE4753BE8753A03F539F538753C2C
:1002FD000A7BFF7A047918120360EF64014E6003E4
:10030D001207821207A67535FF7536037537EFE4B0
:10031D00753BE8753A03F539F538753C0A7BFF7A7C
:10032D00047924120360EF64014E600312078212F8
:10033D0007A6752F007530007531187B007A00798E
:06034D000C12047F80FE8B
:06047F008B2C8A2D892E52
:1004850078647C007D017BFF7A0479577E007F14B8
:100495001200F67E007F147D007B017A00796412DC
:1004A500022F78647C007D017BFF7A047934120287
:1004B50012852C35852D36852E377B017A0079649A
:1004C5001206A37535FF75360475373E7B017A0034
:1004D50079641206A37535FF753604753742E475E0
:1004E5003BB8753A0BF539F538753C0A7B017A004E
:1004F5007964120360EF64014E6003120782AB2F2B
:0C050500AA30A93112075D7F1A0207FB23
:06059D008B4A8A4B894CD9
:1005A300784D7C007D007BFF7A04796B7E007F149D
:1005B3001200F67E007F147D007B007A00794D12D5
:1005C300022F784D7C007D007BFF7A047944120270
:1005D30012854A35854B36854C377B007A00794D39
:1005E3001206A37535FF7536047537487B007A000C
:1005F300794D1206A37535FF75360475374CE475CE
:100603003B10753A27F539F538753C0AFB7A0079C2
:0D0613004D120360EF64014E600312078278
:0106200022B7
:100782007535FF753604753754E4753B64F53A12D6
:100792000353EF64014E70031208037FC87E0012F8
:0407A20007AA80DC46
:03080300020000F0
:0D035300F539F538753C0A7BFF7A0379EA2D
:060360008B328A33893460
:100366001207E8E4F53DE53DC3953C5070AB32AA73
:1003760033A93412075DE4F50BF50AF509F508AF64
:100386003BAE3AAD39AC38AB0BAA0AA909A808C3EB
:10039600120135503B7F647E001207AAE50B2464E8
:1003A600F50BE4350AF50AE43509F509E43508F5EF
:1003B600088535418536428537437B017A007900C9
:1003C600120621E94A4B60B71207E87E007F012238
:1003D600E4F50BF50AF509F508053D80891207E8ED
:0303E600E4FEFF33
:0103E90022F1
:0407A6007F0A7E0048
:1007AA00E4FDFCC3ED9FEC9E5015E4FBFA0BBB0085
:0F07BA00010AEB647B4A70F50DBD00010C80E471
:0107C900220D
:0307590001640038
:1000030075985075CDFF75CCFD75CBFF75CAFDD2C4
:0E001300CCD2CDC2C9C2CBD2CAD2AFD2AC229F
:0807FB008F993099FDC299228B
:10075D008B3E8A3F8940AB3EAA3FA94012011C60E7
:10076D00130540E5407002053F14F912011CFF12FC
:05077D0007FB80E222F1
:1007CA008B618A6289638B418A4289437B017A0001
:0E07DA007900120621E94A4B6002D322C322A5
:1007E8007E007F647D007B017A00790012022FE48D
:0307F800F5642283
:030023000206FBD7
:1006FB00C0E0C083C082C0D0C2AC30981CC298741A
:10070B00002564F582E43400F583E599F00564E592
:10071B0064C394644003756400D2ACD0D0D082D053
:04072B0083D0E03265
:03000000020511E5
:0C051100787FE4F6D8FD7581640205587F
:10002600E709F608DFFA8046E709F208DFFA803EBC
:1000360088828C83E709F0A3DFFA8032E309F608A9
:10004600DFFA8078E309F208DFFA807088828C8311
:10005600E309F0A3DFFA806489828A83E0A3F608C5
:10006600DFFA805889828A83E0A3F208DFFA804C9F
:1000760080D280FA80C680D4806980F28033801076
:1000860080A680EA809A80A880DA80E280CA8033DF
:1000960089828A83ECFAE493A3C8C582C8CCC58357
:1000A600CCF0A3C8C582C8CCC583CCDFE9DEE78027
:1000B6000D89828A83E493A3F608DFF9ECFAA9F0A6
:1000C600EDFB2289828A83ECFAE0A3C8C582C8CCFC
:1000D600C583CCF0A3C8C582C8CCC583CCDFEADE15
:1000E600E880DB89828A83E493A3F208DFF980CC77
:1000F60088F0EF60010E4E60C388F0ED2402B40470
:100106000050B9F582EB2402B4040050AF23234516
:06011600822390007673C5
:10011C00BB010689828A83E0225002E722BBFE02E1
:09012C00E32289828A83E4932214
:10013500EB9FF5F0EA9E42F0E99D42F0E89C45F020
:010145002297
:1006A3008B328A3389348B388A39893AAB320534B1
:1006B300E534AA337002053314F912011C70ED748A
:1006C300FF2534F53474FF3533F533AB350537E5A2
:1006D30037AA367002053614F912011CFFAB320536
:1006E30034E534AA337002053314F9EF12025B7058
:0806F300DAAB38AA39A93A225A
:10014600E709F60870FA8046E709F20870FA803E79
:1001560088828C83E709F0A370FA807EE309F608AB
:1001660070FA8076E309F20870FA806E88828C83D2
:10017600E309F0A370FA806289828A83E0A3F60815
:1001860070FA805689828A83E0A3F20870FA804A60
:1001960080D280FA80C680D4806580F2803180105B
:1001A60080A680EA809A80A880DA80E280CA8031C0
:1001B60089828A83ECFAE493A3C8C582C8CCC58336
:1001C600CCF0A3C8C582C8CCC583CC70E9800D89A4
:1001D600828A83E493A3F60870F9ECFAA9F0EDFBA2
:1001E6002289828A83ECFAE0A3C8C582C8CCC5837B
:1001F600CCF0A3C8C582C8CCC583CC70EA80DD89A3
:10020600828A83E493A3F20870F980CE88F0ED2405
:1002160002B4040050C4F582EB2402B4040050BAC0
:0902260023234582239001967305
:100621008B3E8A3F8940AB41AA42A94312011C601B
:1006310063AB3EAA3FA94012011C605F854144851E
:1006410042458543468B478A488949AB44AA45A917
:100651004612011CFF6023AB47AA48A94912011C9D
:100661006F7017042546F546E43545F545740125B7
:1006710049F549E43548F54880D1AB44AA45A94636
:1006810012011C7002800D74012540F540E4353FD4
:10069100F53F809DAB3EAA3FA940227B007A0079BD
:0206A100002235
:10022F00EF4E6012EF60010EEDBB010B89828A83E6
:10023F00F0A3DFFCDEFA2289F05007F709DFFCA9F3
:0C024F00F022BBFEFCF309DFFCA9F0224A
:10051D0002026DE493A3F8E493A34003F68001F285
:10052D0008DFF48029E493A3F85407240CC8C333DF
:10053D00C4540F4420C8834004F456800146F6DFAE
:10054D00E4800B010204081020408090072FE47E08
:10055D00019360BCA3FF543F30E509541FFEE493A3
:10056D00A360010ECF54C025E060A840B8E493A36A
:10057D00FAE493A3F8E493A3C8C582C8CAC583CA95
:10058D00F0A3C8C582C8CAC583CADFE9DEE780BE4D
:01075C00009C
:10025B00BB010689828A83F0225002F722BBFE0182
:02026B00F3227C
:00000001FF
