:1008E50041542B5253540D0A004F4B0D0A004154ED
:1008F5000D0A0041542B4350494E3F0D0A00524505
:100905004144590041542B435245473F0D0A00438A
:100915005245473A20310041542B43474154543DF9
:10092500310D0A0041542B434744434F4E543D314A
:100935002C224950222C22434D4E4554220D0A00AB
:1009450041542B43474143543D312C310D0A00415D
:10095500542B43495053544152543D225443502241
:100965002C2200222C000D0A00434F4E4E454354C5
:100975000041542B43495053454E440D0A003E0057
:10098500494C6F76654D43552E74616F62616F2ECC
:10099500636F6D2025640D0A0041542B4349504374
:1009A5004C4F53450D0A0041542B434D47533D22AF
:1009B50000220D0A00415444003B0D0A00534F55D7
:1009C5004E444552004F4B003137373139323238BA
:1009D50030383200494C6F76654D43552E74616F42
:1009E50062616F2E636F6D003132322E3232382ED6
:1009F50031392E35370033303339360000000000E9
:100A050000000000000000000000000000000000E1
:100A150000000000000000000000000000000000D1
:100A250000000000000000000000000000000000C1
:100A350000000000000000000000000000000000B1
:100A450000000000000000000000000000000000A1
:100A55000000000000000000000000000000000091
:100A65000000000000000000000000000000000081
:100A75000000000000000000000000000000000071
:080A8500000000000000000069
:0A0EA600043F0000000002430000BA
:10038200120003750BFF750C08750DEEE47511B8BC
:1003920075100BF50FF50E75120A7BFF7A0879E5D9
:1003A200120A9AEF64014E6003120DD4120E5175B7
:1003B2000BFF750C08750DEEE47511B875100BF591
:1003C2000FF50E75120A7BFF7A0879F3120A9AEF7B
:1003D20064014E6003120DD4120E51750BFF750CA1
:1003E20009750D03E47511E8751003F50FF50E7527
:1003F200120A7BFF7A0879F8120A9AEF64014E60BA
:1004020003120DD4120E51750BFF750C09750D14E4
:10041200E47511E8751003F50FF50E75120A7BFFEE
:100422007A097909120A9AEF64014E6003120DD417
:10043200120E51750BFF750C08750DEEE47511E87F
:10044200751003F50FF50E75120A7BFF7A09791CF8
:10045200120A9AEF64014E6003120DD4120E517506
:100462000BFF750C08750DEEE47511E8751003F5B8
:100472000FF50E75120A7BFF7A097929120A9AEF93
:1004820064014E6003120DD4120E51750BFF750CF0
:1004920008750DEEE47511E8751003F50FF50E758C
:1004A200120A7BFF7A097945120A9AEF64014E60BB
:0704B20003120DD4120E51DC
:1004B90078647C007D017BFF7A0A79017E007F6484
:1004C90012070B7E007F647D007B017A007964123C
:1004D900084478647C007D017BFF7A09795412080D
:1004E90027750BFF750C09750DED7B017A00796491
:1004F900120D48750BFF750C09750D687B017A00A3
:100509007964120D48750BFF750C09750DFB7B019C
:100519007A007964120D48750BFF750C09750D6B1E
:100529007B017A007964120D48750BFF750C09750A
:100539000D6EE4751110751027120A8DEF64014EC6
:100549006003120DD4750BFF750C09750D83E475E5
:1005590011B875100BF50FF50E7512057BFF7A09A9
:100569007976120A9AEF64014E6003120DD47E0067
:100579007F647D007B017A007964120844750BFF62
:10058900750C09750D8585430E85440F7B017A002D
:1005990079641200820544E54470020543750B0134
:1005A900750C00750D64E47511B875100BF50FF530
:1005B9000E751201120A94EF64014E6003120DD4F4
:1005C9007F647E00120E557E007F647D007B017A78
:1005D900007964120844900064741AF0750B01756F
:1005E9000C00750D64E47511B875100B120A8DEFC6
:1005F90064014E6003120DD47F647E00120E55759E
:100609000BFF750C08750DEEE47511B875100BF537
:100619000FF50E75120A7BFF7A09799E120A9AEF75
:0F06290064014E6003120DD47FE87E03120E555C
:030638000204B900
:060B24008B398A3A893B7F
:100B2A0078C87C007D017BFF7A0A79657E007F1494
:100B3A0012070B7E007F147D007B017A0079C812B0
:100B4A00084478C87C007D017BFF7A0979AC1208D9
:100B5A002785390B853A0C853B0D7B017A0079C8CC
:100B6A00120D48750BFF750C09750DB67B017A00DD
:100B7A0079C8120D48750BFF750C09750D83E4755C
:100B8A0011B875100BF50FF50E75120A7B017A0074
:100B9A0079C8120A9AEF64014E6003120DD4AB3C75
:0C0BAA00AA3DA93E120E2C7F1A020EB4C8
:060C42008B228A238924A5
:100C480078257C007D007BFF7A0A79797E007F1405
:100C580012070B7E007F147D007B007A0079251235
:100C6800084478257C007D007BFF7A0979BA120850
:100C78002785220B85230C85240D7B007A00792596
:100C8800120D48750BFF750C09750DBE7B007A00B7
:100C98007925120D48750BFF750C09750DC2E475A1
:100CA8001110751027F50FF50E75120AFB7A0079E9
:0D0CB80025120A9AEF64014E6003120DD45C
:010CC500220C
:100DD400750BFF750C09750DCAE4751164F510F5F2
:100DE4000FF50E75120A7BFF7A0879F3120A9AEF4F
:100DF40064014E7003120EBC7FC87E00120E558033
:010E0400CF1E
:030EBC0002000031
:0D0A8D00F50FF50E7512057B017A007964F6
:060A9A008B088A09890A9D
:100AA000120E93E4F513E513C395125070AB08AA28
:100AB00009A90A120E2CE4F542F541F540F53FAFC5
:100AC00011AE10AD0FAC0EAB42AA41A940A83FC376
:100AD00012074A503B7F647E00120E55E5422464A3
:100AE000F542E43541F541E43540F540E4353FF564
:100AF0003F850B17850C18850D197B017A0079004D
:100B0000120CC6E94A4B60B7120E937E007F012299
:100B1000E4F542F541F540F53F05138089120E9347
:030B2000E4FEFFF1
:010B230022AF
:040E51007F0A7E0096
:100E5500E4FDFCC3ED9FEC9E5015E4FBFA0BBB00D3
:0F0E6500010AEB647B4A70F50DBD00010C80E4BF
:010E7400225B
:030EB000014800F6
:1000030075985075CDFF75CCFD75CBFF75CAFDD2C4
:0E001300CCD2CDC2C9C2CBD2CAD2AFD2AC229F
:080EB4008F993099FDC29922CB
:100E2C008B148A158916AB14AA15A91612073160F2
:100E3C00130516E5167002051514F9120731FF1289
:050E4C000EB480E2225B
:100E75008B458A4689478B178A1889197B017A0021
:0E0E85007900120CC6E94A4B6002D322C32248
:100E93007E007F647D007B017A007900120844E4C0
:030EA300F54822ED
:03002300020DA02B
:100DA000C0E0C083C082C0D0C2AC30981CC298746E
:100DB000002548F582E43400F583E599F00548E51F
:100DC00048C394644003754800D2ACD0D0D082D0E0
:040DD00083D0E032BA
:03000000020BB63A
:0C0BB600787FE4F6D8FD758148020BFD45
:10063B00E709F608DFFA8046E709F208DFFA803EA1
:10064B0088828C83E709F0A3DFFA8032E309F6088E
:10065B00DFFA8078E309F208DFFA807088828C83F6
:10066B00E309F0A3DFFA806489828A83E0A3F608AA
:10067B00DFFA805889828A83E0A3F208DFFA804C84
:10068B0080D280FA80C680D4806980F2803380105B
:10069B0080A680EA809A80A880DA80E280CA8033C4
:1006AB0089828A83ECFAE493A3C8C582C8CCC5833C
:1006BB00CCF0A3C8C582C8CCC583CCDFE9DEE7800C
:1006CB000D89828A83E493A3F608DFF9ECFAA9F08B
:1006DB00EDFB2289828A83ECFAE0A3C8C582C8CCE1
:1006EB00C583CCF0A3C8C582C8CCC583CCDFEADEFA
:1006FB00E880DB89828A83E493A3F208DFF980CC5C
:10070B0088F0EF60010E4E60C388F0ED2402B40454
:10071B000050B9F582EB2402B4040050AF232345FB
:06072B00822390068B738F
:10073100BB010689828A83E0225002E722BBFE02C6
:09074100E32289828A83E49322F9
:10074A00EB9FF5F0EA9E42F0E99D42F0E89C45F005
:01075A00227C
:10002600E517240BF8E60517227808300702780B47
:10003600E475F0011208AF0207312000EB7F2ED2E3
:10004600008018EF540F2490D43440D4FF30040BB2
:10005600EF24BFB41A0050032461FFE518600215AF
:1000660018051BE51B7002051A30070D7808E475A4
:10007600F0011208AFEF02089D020E057403D207C5
:100086008003E4C207F5178B088A09890AE4F51884
:10009600F51AF51BE51860077F2012006180F575DB
:1000A60019FFC201C200C202C203C205C206C208CB
:1000B60012002FFF700D3007057F00120072AF1B74
:1000C600AE1A22B4255FC2D5C20412002FFF24D077
:1000D600B40A00501A75F00A781830D50508B6FF2C
:1000E6000106C6A426F620D5047002D20380D924C0
:1000F600CFB41A00EF5004C2E5D204020272D20154
:1001060080C6D20080C0D20280BCD2D580BAD205C9
:1001160080B47F201200612002077401B5180040E8
:10012600F1120026FF12006102009AD208D2068060
:1001360095120026FB120026FA120026F94A4B7089
:100146000679437A037BFF20022EE518602A7E009B
:100156008E8275830012087060060EEE651970F0C7
:10016600C2D5EBC0E0EAC0E0E9C0E0EE1202B9D0C9
:10017600E0F9D0E0FAD0E0FB120731FF60AAEBC04D
:10018600E0EAC0E0E9C0E0120061D0E02401F9D065
:10019600E03400FAD0E0FBE5190460DCD519D9801B
:1001A600877BFF7A0279B5D202809C79108002792A
:1001B60008C206C2088008D2D5790A8004790AC224
:1001C600D5E519047002F519E4FAFDFEFF120026C2
:1001D600FC7B08200113120026FD7B1030000A125A
:1001E6000026FE120026FF7B20EC3382D592D550E6
:1001F60013C3E43000069FFFE49EFEE42001039D46
:10020600FDE49CFCE4CBF8C201EC700CCFCECDCC67
:10021600E824F8F870F38017C3EF33FFEE33FEEDF2
:1002260033FDEC33FCEB33FB994002FB0FD8E9EBD3
:10023600300105F8D0E0C448B201C0E00AEC4D4EEA
:100246004F78207B0070C2EAB5190040BCC0E012AE
:1002560002BBD0F0D0E0200104C4C0E0C4B201C0AB
:10026600F012004AD0F0D5F0EB02009A1208BF0156
:10027600375301B15801084C01044201B54F01BD85
:0F0286004401BD49011D4301C35501A74601A70E
:100295004501A747036350010C2D01102E01332B97
:1002A500011423013120034C2A00CC480000012B06
:1002B5003F3F3F00790AA2D5200314300509B91044
:1002C500020404B9080104A2D52006025001042045
:1002D50002689202B518005034C0E07F203003193F
:1002E5007F30A20272067205500F120312C202C2BB
:1002F50006C205C2087F30800F300503E9C0E01251
:100305000061300503D0E0F9D0E0B518CC30051711
:100315007F30B9100C1200617F583004077F788058
:1003250003B908031200613002057F2D0200617FC9
:10033500202008F87F2B2006F322920280CF286E1A
:10034500756C6C2900D2011200263001F8C20178C3
:100355001830D50108F60200CC2D5043495812003B
:10036500262403B405004001E490035E9312005275
:0D037500743A120052D2037518040201B14F
:100D48008B088A09890A8B0E8A0F8910AB08050A55
:100D5800E50AAA097002050914F912073170ED7441
:100D6800FF250AF50A74FF3509F509AB0B050DE5F2
:100D78000DAA0C7002050C14F9120731FFAB080517
:100D88000AE50AAA097002050914F9EF12089D700C
:080D9800DAAB0EAA0FA910222C
:10075B00E709F60870FA8046E709F20870FA803E5E
:10076B0088828C83E709F0A370FA807EE309F60890
:10077B0070FA8076E309F20870FA806E88828C83B7
:10078B00E309F0A370FA806289828A83E0A3F608FA
:10079B0070FA805689828A83E0A3F20870FA804A45
:1007AB0080D280FA80C680D4806580F28031801040
:1007BB0080A680EA809A80A880DA80E280CA8031A5
:1007CB0089828A83ECFAE493A3C8C582C8CCC5831B
:1007DB00CCF0A3C8C582C8CCC583CC70E9800D8989
:1007EB00828A83E493A3F60870F9ECFAA9F0EDFB87
:1007FB002289828A83ECFAE0A3C8C582C8CCC58360
:10080B00CCF0A3C8C582C8CCC583CC70EA80DD8987
:10081B00828A83E493A3F20870F980CE88F0ED24EA
:10082B0002B4040050C4F582EB2402B4040050BAA5
:09083B0023234582239007AB73CF
:100CC6008B148A158916AB17AA18A9191207316051
:100CD60063AB14AA15A916120731605F85171A852A
:100CE600181B85191C8B1D8A1E891FAB1AAA1BA9E6
:100CF6001C120731FF6023AB1DAA1EA91F12073164
:100D06006F701704251CF51CE4351BF51B740125B3
:100D16001FF51FE4351EF51E80D1AB1AAA1BA91CB0
:100D26001207317002800D74012516F516E435158B
:100D3600F515809DAB14AA15A916227B007A0079B9
:020D4600002289
:10084400EF4E6012EF60010EEDBB010B89828A83CB
:10085400F0A3DFFCDEFA2289F05007F709DFFCA9D8
:0C086400F022BBFEFCF309DFFCA9F0222F
:100BC200020382E493A3F8E493A34003F68001F2C4
:100BD20008DFF48029E493A3F85407240CC8C33334
:100BE200C4540F4420C8834004F456800146F6DF03
:100BF200E4800B0102040810204080900EA6E47EDF
:100C0200019360BCA3FF543F30E509541FFEE493F7
:100C1200A360010ECF54C025E060A840B8E493A3BE
:100C2200FAE493A3F8E493A3C8C582C8CAC583CAE9
:100C3200F0A3C8C582C8CAC583CADFE9DEE780BEA1
:010EB300003E
:10087000BB010CE58229F582E5833AF583E022503D
:1008800006E92582F8E622BBFE06E92582F8E22287
:0D089000E58229F582E5833AF583E49322A1
:10089D00BB010689828A83F0225002F722BBFE013A
:0208AD00F32234
:1008AF00FAE6FB0808E6F925F0F618E6CA3AF6224A
:1008BF00D083D082F8E4937012740193700DA3A3C8
:1008CF0093F8740193F5828883E4737402936860DC
:0608DF00EFA3A3A380DFDC
:100E0500EFB40A07740D120E10740A309811A899E0
:100E1500B8130CC2983098FDA899C298B811F6304D
:070E250099FDC299F5992225
:00000001FF
